{
  "contractName": "PokPokCoin",
  "abi": [
    {
      "inputs": [],
      "stateMutability": "nonpayable",
      "type": "constructor"
    },
    {
      "anonymous": false,
      "inputs": [
        {
          "indexed": true,
          "internalType": "address",
          "name": "owner",
          "type": "address"
        },
        {
          "indexed": true,
          "internalType": "address",
          "name": "spender",
          "type": "address"
        },
        {
          "indexed": false,
          "internalType": "uint256",
          "name": "value",
          "type": "uint256"
        }
      ],
      "name": "Approval",
      "type": "event"
    },
    {
      "anonymous": false,
      "inputs": [
        {
          "indexed": true,
          "internalType": "address",
          "name": "from",
          "type": "address"
        },
        {
          "indexed": true,
          "internalType": "address",
          "name": "to",
          "type": "address"
        },
        {
          "indexed": false,
          "internalType": "uint256",
          "name": "value",
          "type": "uint256"
        }
      ],
      "name": "Transfer",
      "type": "event"
    },
    {
      "inputs": [
        {
          "internalType": "address",
          "name": "owner",
          "type": "address"
        },
        {
          "internalType": "address",
          "name": "spender",
          "type": "address"
        }
      ],
      "name": "allowance",
      "outputs": [
        {
          "internalType": "uint256",
          "name": "",
          "type": "uint256"
        }
      ],
      "stateMutability": "view",
      "type": "function",
      "constant": true
    },
    {
      "inputs": [
        {
          "internalType": "address",
          "name": "spender",
          "type": "address"
        },
        {
          "internalType": "uint256",
          "name": "amount",
          "type": "uint256"
        }
      ],
      "name": "approve",
      "outputs": [
        {
          "internalType": "bool",
          "name": "",
          "type": "bool"
        }
      ],
      "stateMutability": "nonpayable",
      "type": "function"
    },
    {
      "inputs": [
        {
          "internalType": "address",
          "name": "account",
          "type": "address"
        }
      ],
      "name": "balanceOf",
      "outputs": [
        {
          "internalType": "uint256",
          "name": "",
          "type": "uint256"
        }
      ],
      "stateMutability": "view",
      "type": "function",
      "constant": true
    },
    {
      "inputs": [
        {
          "internalType": "address",
          "name": "spender",
          "type": "address"
        },
        {
          "internalType": "uint256",
          "name": "subtractedValue",
          "type": "uint256"
        }
      ],
      "name": "decreaseAllowance",
      "outputs": [
        {
          "internalType": "bool",
          "name": "",
          "type": "bool"
        }
      ],
      "stateMutability": "nonpayable",
      "type": "function"
    },
    {
      "inputs": [
        {
          "internalType": "address",
          "name": "spender",
          "type": "address"
        },
        {
          "internalType": "uint256",
          "name": "addedValue",
          "type": "uint256"
        }
      ],
      "name": "increaseAllowance",
      "outputs": [
        {
          "internalType": "bool",
          "name": "",
          "type": "bool"
        }
      ],
      "stateMutability": "nonpayable",
      "type": "function"
    },
    {
      "inputs": [],
      "name": "name",
      "outputs": [
        {
          "internalType": "string",
          "name": "",
          "type": "string"
        }
      ],
      "stateMutability": "view",
      "type": "function",
      "constant": true
    },
    {
      "inputs": [],
      "name": "symbol",
      "outputs": [
        {
          "internalType": "string",
          "name": "",
          "type": "string"
        }
      ],
      "stateMutability": "view",
      "type": "function",
      "constant": true
    },
    {
      "inputs": [],
      "name": "totalSupply",
      "outputs": [
        {
          "internalType": "uint256",
          "name": "",
          "type": "uint256"
        }
      ],
      "stateMutability": "view",
      "type": "function",
      "constant": true
    },
    {
      "inputs": [
        {
          "internalType": "address",
          "name": "to",
          "type": "address"
        },
        {
          "internalType": "uint256",
          "name": "amount",
          "type": "uint256"
        }
      ],
      "name": "transfer",
      "outputs": [
        {
          "internalType": "bool",
          "name": "",
          "type": "bool"
        }
      ],
      "stateMutability": "nonpayable",
      "type": "function"
    },
    {
      "inputs": [
        {
          "internalType": "address",
          "name": "from",
          "type": "address"
        },
        {
          "internalType": "address",
          "name": "to",
          "type": "address"
        },
        {
          "internalType": "uint256",
          "name": "amount",
          "type": "uint256"
        }
      ],
      "name": "transferFrom",
      "outputs": [
        {
          "internalType": "bool",
          "name": "",
          "type": "bool"
        }
      ],
      "stateMutability": "nonpayable",
      "type": "function"
    },
    {
      "inputs": [],
      "name": "deposit",
      "outputs": [],
      "stateMutability": "payable",
      "type": "function",
      "payable": true
    },
    {
      "inputs": [
        {
          "internalType": "uint256",
          "name": "amount",
          "type": "uint256"
        }
      ],
      "name": "withdraw",
      "outputs": [],
      "stateMutability": "nonpayable",
      "type": "function"
    },
    {
      "inputs": [],
      "name": "decimals",
      "outputs": [
        {
          "internalType": "uint8",
          "name": "",
          "type": "uint8"
        }
      ],
      "stateMutability": "view",
      "type": "function",
      "constant": true
    }
  ],
  "bytecode": "0x60806040523480156200001157600080fd5b506040518060400160405280600a81526020017f506f6b506f6b436f696e000000000000000000000000000000000000000000008152506040518060400160405280600381526020017f5050430000000000000000000000000000000000000000000000000000000000815250816003908051906020019062000096929190620000b5565b508051620000ac906004906020840190620000b5565b505050620001b1565b828054620000c3906200015b565b90600052602060002090601f016020900481019282620000e7576000855562000132565b82601f106200010257805160ff191683800117855562000132565b8280016001018555821562000132579182015b828111156200013257825182559160200191906001019062000115565b506200014092915062000144565b5090565b5b8082111562000140576000815560010162000145565b6002810460018216806200017057607f821691505b60208210811415620001ab577f4e487b7100000000000000000000000000000000000000000000000000000000600052602260045260246000fd5b50919050565b610e7080620001c16000396000f3fe6080604052600436106100df576000357c010000000000000000000000000000000000000000000000000000000090048063395093511161009c578063a457c2d711610076578063a457c2d714610227578063a9059cbb14610247578063d0e30db014610267578063dd62ed3e1461026f57600080fd5b806339509351146101bc57806370a08231146101dc57806395d89b411461021257600080fd5b806306fdde03146100e4578063095ea7b31461010f57806318160ddd1461013f57806323b872dd1461015e5780632e1a7d4d1461017e578063313ce567146101a0575b600080fd5b3480156100f057600080fd5b506100f961028f565b6040516101069190610cd9565b60405180910390f35b34801561011b57600080fd5b5061012f61012a366004610c96565b610321565b6040519015158152602001610106565b34801561014b57600080fd5b506002545b604051908152602001610106565b34801561016a57600080fd5b5061012f610179366004610c5a565b610339565b34801561018a57600080fd5b5061019e610199366004610cc0565b61035d565b005b3480156101ac57600080fd5b5060405160008152602001610106565b3480156101c857600080fd5b5061012f6101d7366004610c96565b61041a565b3480156101e857600080fd5b506101506101f7366004610c05565b600160a060020a031660009081526020819052604090205490565b34801561021e57600080fd5b506100f961043c565b34801561023357600080fd5b5061012f610242366004610c96565b61044b565b34801561025357600080fd5b5061012f610262366004610c96565b6104e1565b61019e6104ef565b34801561027b57600080fd5b5061015061028a366004610c27565b61055d565b60606003805461029e90610db7565b80601f01602080910402602001604051908101604052809291908181526020018280546102ca90610db7565b80156103175780601f106102ec57610100808354040283529160200191610317565b820191906000526020600020905b8154815290600101906020018083116102fa57829003601f168201915b5050505050905090565b60003361032f818585610588565b5060019392505050565b6000336103478582856106e7565b610352858585610764565b506001949350505050565b60008111801561037c5750336000908152602081905260409020548111155b6103d05760405160e560020a62461bcd02815260206004820152601260248201527f416d6f756e7420505043206973205a65726f000000000000000000000000000060448201526064015b60405180910390fd5b336108fc6103e483655af3107a4000610d81565b6040518115909202916000818181858888f1935050505015801561040c573d6000803e3d6000fd5b506104173382610984565b50565b60003361032f81858561042d838361055d565b6104379190610d2e565b610588565b60606004805461029e90610db7565b60003381610459828661055d565b9050838110156104d45760405160e560020a62461bcd02815260206004820152602560248201527f45524332303a2064656372656173656420616c6c6f77616e63652062656c6f7760448201527f207a65726f00000000000000000000000000000000000000000000000000000060648201526084016103c7565b6103528286868403610588565b60003361032f818585610764565b600034116105425760405160e560020a62461bcd02815260206004820152601260248201527f416d6f756e7420455448206973205a65726f000000000000000000000000000060448201526064016103c7565b61055b33610556655af3107a400034610d46565b610b07565b565b600160a060020a03918216600090815260016020908152604080832093909416825291909152205490565b600160a060020a0383166106065760405160e560020a62461bcd028152602060048201526024808201527f45524332303a20617070726f76652066726f6d20746865207a65726f2061646460448201527f726573730000000000000000000000000000000000000000000000000000000060648201526084016103c7565b600160a060020a0382166106855760405160e560020a62461bcd02815260206004820152602260248201527f45524332303a20617070726f766520746f20746865207a65726f20616464726560448201527f737300000000000000000000000000000000000000000000000000000000000060648201526084016103c7565b600160a060020a0383811660008181526001602090815260408083209487168084529482529182902085905590518481527f8c5be1e5ebec7d5bd14f71427d1e84f3dd0314c0f7b2291e5b200ac8c7c3b92591015b60405180910390a3505050565b60006106f3848461055d565b9050600019811461075e57818110156107515760405160e560020a62461bcd02815260206004820152601d60248201527f45524332303a20696e73756666696369656e7420616c6c6f77616e636500000060448201526064016103c7565b61075e8484848403610588565b50505050565b600160a060020a0383166107e35760405160e560020a62461bcd02815260206004820152602560248201527f45524332303a207472616e736665722066726f6d20746865207a65726f20616460448201527f647265737300000000000000000000000000000000000000000000000000000060648201526084016103c7565b600160a060020a0382166108625760405160e560020a62461bcd02815260206004820152602360248201527f45524332303a207472616e7366657220746f20746865207a65726f206164647260448201527f657373000000000000000000000000000000000000000000000000000000000060648201526084016103c7565b600160a060020a038316600090815260208190526040902054818110156108f45760405160e560020a62461bcd02815260206004820152602660248201527f45524332303a207472616e7366657220616d6f756e742065786365656473206260448201527f616c616e6365000000000000000000000000000000000000000000000000000060648201526084016103c7565b600160a060020a0380851660009081526020819052604080822085850390559185168152908120805484929061092b908490610d2e565b9250508190555082600160a060020a031684600160a060020a03167fddf252ad1be2c89b69c2b068fc378daa952ba7f163c4a11628f55a4df523b3ef8460405161097791815260200190565b60405180910390a361075e565b600160a060020a038216610a035760405160e560020a62461bcd02815260206004820152602160248201527f45524332303a206275726e2066726f6d20746865207a65726f2061646472657360448201527f730000000000000000000000000000000000000000000000000000000000000060648201526084016103c7565b600160a060020a03821660009081526020819052604090205481811015610a955760405160e560020a62461bcd02815260206004820152602260248201527f45524332303a206275726e20616d6f756e7420657863656564732062616c616e60448201527f636500000000000000000000000000000000000000000000000000000000000060648201526084016103c7565b600160a060020a0383166000908152602081905260408120838303905560028054849290610ac4908490610da0565b9091555050604051828152600090600160a060020a038516907fddf252ad1be2c89b69c2b068fc378daa952ba7f163c4a11628f55a4df523b3ef906020016106da565b600160a060020a038216610b605760405160e560020a62461bcd02815260206004820152601f60248201527f45524332303a206d696e7420746f20746865207a65726f20616464726573730060448201526064016103c7565b8060026000828254610b729190610d2e565b9091555050600160a060020a03821660009081526020819052604081208054839290610b9f908490610d2e565b9091555050604051818152600160a060020a038316906000907fddf252ad1be2c89b69c2b068fc378daa952ba7f163c4a11628f55a4df523b3ef9060200160405180910390a35050565b8035600160a060020a0381168114610c0057600080fd5b919050565b600060208284031215610c1757600080fd5b610c2082610be9565b9392505050565b60008060408385031215610c3a57600080fd5b610c4383610be9565b9150610c5160208401610be9565b90509250929050565b600080600060608486031215610c6f57600080fd5b610c7884610be9565b9250610c8660208501610be9565b9150604084013590509250925092565b60008060408385031215610ca957600080fd5b610cb283610be9565b946020939093013593505050565b600060208284031215610cd257600080fd5b5035919050565b600060208083528351808285015260005b81811015610d0657858101830151858201604001528201610cea565b81811115610d18576000604083870101525b50601f01601f1916929092016040019392505050565b60008219821115610d4157610d41610e0b565b500190565b600082610d7c577f4e487b7100000000000000000000000000000000000000000000000000000000600052601260045260246000fd5b500490565b6000816000190483118215151615610d9b57610d9b610e0b565b500290565b600082821015610db257610db2610e0b565b500390565b600281046001821680610dcb57607f821691505b60208210811415610e05577f4e487b7100000000000000000000000000000000000000000000000000000000600052602260045260246000fd5b50919050565b7f4e487b7100000000000000000000000000000000000000000000000000000000600052601160045260246000fdfea2646970667358221220fa77c811186ca9441331e687a2b098737709d441ab0c13ef4825eb3c0268a6a664736f6c63430008070033",
  "immutableReferences": {},
  "source": "// SPDX-License-Identifier: MIT\r\npragma solidity ^0.8.7;\r\n\r\nimport \"@openzeppelin/contracts/token/ERC20/ERC20.sol\";\r\n\r\ncontract PokPokCoin is ERC20 {\r\n    constructor() ERC20(\"PokPokCoin\", \"PPC\") {\r\n        \r\n    }\r\n\r\n    function deposit() public payable{\r\n        require(msg.value > 0,\"Amount ETH is Zero\");\r\n        // 1 ETH = 10000 PPC\r\n        _mint(msg.sender, msg.value / (10**14));\r\n\r\n    }\r\n\r\n    function withdraw(uint amount) public{\r\n        require(amount > 0 && amount <= balanceOf(msg.sender),\"Amount PPC is Zero\");\r\n        payable(msg.sender).transfer(amount * (10**14) );\r\n        _burn(msg.sender,amount);\r\n    }\r\n\r\n    function decimals() public view virtual override returns (uint8) {\r\n        return 0;\r\n    }\r\n\r\n\r\n}",
  "sourcePath": "C:\\Users\\BlackPinker\\Desktop\\DappDEMO\\ERC20Simple\\contracts\\PokPokCoin.sol",
  "compiler": {
    "name": "solc",
    "version": "0.8.7+commit.e28d00a7.Emscripten.clang"
  },
  "schemaVersion": "3.4.4",
  "updatedAt": "2022-05-05T13:36:51.197Z",
  "networkType": "ethereum",
  "devdoc": {
    "kind": "dev",
    "methods": {
      "allowance(address,address)": {
        "details": "See {IERC20-allowance}."
      },
      "approve(address,uint256)": {
        "details": "See {IERC20-approve}. NOTE: If `amount` is the maximum `uint256`, the allowance is not updated on `transferFrom`. This is semantically equivalent to an infinite approval. Requirements: - `spender` cannot be the zero address."
      },
      "balanceOf(address)": {
        "details": "See {IERC20-balanceOf}."
      },
      "decimals()": {
        "details": "Returns the number of decimals used to get its user representation. For example, if `decimals` equals `2`, a balance of `505` tokens should be displayed to a user as `5.05` (`505 / 10 ** 2`). Tokens usually opt for a value of 18, imitating the relationship between Ether and Wei. This is the value {ERC20} uses, unless this function is overridden; NOTE: This information is only used for _display_ purposes: it in no way affects any of the arithmetic of the contract, including {IERC20-balanceOf} and {IERC20-transfer}."
      },
      "decreaseAllowance(address,uint256)": {
        "details": "Atomically decreases the allowance granted to `spender` by the caller. This is an alternative to {approve} that can be used as a mitigation for problems described in {IERC20-approve}. Emits an {Approval} event indicating the updated allowance. Requirements: - `spender` cannot be the zero address. - `spender` must have allowance for the caller of at least `subtractedValue`."
      },
      "increaseAllowance(address,uint256)": {
        "details": "Atomically increases the allowance granted to `spender` by the caller. This is an alternative to {approve} that can be used as a mitigation for problems described in {IERC20-approve}. Emits an {Approval} event indicating the updated allowance. Requirements: - `spender` cannot be the zero address."
      },
      "name()": {
        "details": "Returns the name of the token."
      },
      "symbol()": {
        "details": "Returns the symbol of the token, usually a shorter version of the name."
      },
      "totalSupply()": {
        "details": "See {IERC20-totalSupply}."
      },
      "transfer(address,uint256)": {
        "details": "See {IERC20-transfer}. Requirements: - `to` cannot be the zero address. - the caller must have a balance of at least `amount`."
      },
      "transferFrom(address,address,uint256)": {
        "details": "See {IERC20-transferFrom}. Emits an {Approval} event indicating the updated allowance. This is not required by the EIP. See the note at the beginning of {ERC20}. NOTE: Does not update the allowance if the current allowance is the maximum `uint256`. Requirements: - `from` and `to` cannot be the zero address. - `from` must have a balance of at least `amount`. - the caller must have allowance for ``from``'s tokens of at least `amount`."
      }
    },
    "version": 1
  },
  "userdoc": {
    "kind": "user",
    "methods": {},
    "version": 1
  }
}